{
  "contractName": "CoffeeToken",
  "abi": [
    {
      "inputs": [],
      "stateMutability": "nonpayable",
      "type": "constructor"
    },
    {
      "anonymous": false,
      "inputs": [
        {
          "indexed": true,
          "internalType": "address",
          "name": "owner",
          "type": "address"
        },
        {
          "indexed": true,
          "internalType": "address",
          "name": "spender",
          "type": "address"
        },
        {
          "indexed": false,
          "internalType": "uint256",
          "name": "value",
          "type": "uint256"
        }
      ],
      "name": "Approval",
      "type": "event"
    },
    {
      "anonymous": false,
      "inputs": [
        {
          "indexed": true,
          "internalType": "address",
          "name": "from",
          "type": "address"
        },
        {
          "indexed": false,
          "internalType": "string",
          "name": "message",
          "type": "string"
        },
        {
          "indexed": false,
          "internalType": "uint256",
          "name": "date",
          "type": "uint256"
        },
        {
          "indexed": false,
          "internalType": "uint256",
          "name": "value",
          "type": "uint256"
        }
      ],
      "name": "Coffee",
      "type": "event"
    },
    {
      "anonymous": false,
      "inputs": [
        {
          "indexed": true,
          "internalType": "address",
          "name": "from",
          "type": "address"
        },
        {
          "indexed": true,
          "internalType": "address",
          "name": "to",
          "type": "address"
        },
        {
          "indexed": false,
          "internalType": "uint256",
          "name": "value",
          "type": "uint256"
        }
      ],
      "name": "Transfer",
      "type": "event"
    },
    {
      "inputs": [],
      "name": "admin",
      "outputs": [
        {
          "internalType": "address",
          "name": "",
          "type": "address"
        }
      ],
      "stateMutability": "view",
      "type": "function"
    },
    {
      "inputs": [
        {
          "internalType": "address",
          "name": "owner",
          "type": "address"
        },
        {
          "internalType": "address",
          "name": "spender",
          "type": "address"
        }
      ],
      "name": "allowance",
      "outputs": [
        {
          "internalType": "uint256",
          "name": "",
          "type": "uint256"
        }
      ],
      "stateMutability": "view",
      "type": "function"
    },
    {
      "inputs": [
        {
          "internalType": "address",
          "name": "spender",
          "type": "address"
        },
        {
          "internalType": "uint256",
          "name": "amount",
          "type": "uint256"
        }
      ],
      "name": "approve",
      "outputs": [
        {
          "internalType": "bool",
          "name": "",
          "type": "bool"
        }
      ],
      "stateMutability": "nonpayable",
      "type": "function"
    },
    {
      "inputs": [
        {
          "internalType": "address",
          "name": "account",
          "type": "address"
        }
      ],
      "name": "balanceOf",
      "outputs": [
        {
          "internalType": "uint256",
          "name": "",
          "type": "uint256"
        }
      ],
      "stateMutability": "view",
      "type": "function"
    },
    {
      "inputs": [],
      "name": "decimals",
      "outputs": [
        {
          "internalType": "uint8",
          "name": "",
          "type": "uint8"
        }
      ],
      "stateMutability": "view",
      "type": "function"
    },
    {
      "inputs": [
        {
          "internalType": "address",
          "name": "spender",
          "type": "address"
        },
        {
          "internalType": "uint256",
          "name": "subtractedValue",
          "type": "uint256"
        }
      ],
      "name": "decreaseAllowance",
      "outputs": [
        {
          "internalType": "bool",
          "name": "",
          "type": "bool"
        }
      ],
      "stateMutability": "nonpayable",
      "type": "function"
    },
    {
      "inputs": [
        {
          "internalType": "address",
          "name": "spender",
          "type": "address"
        },
        {
          "internalType": "uint256",
          "name": "addedValue",
          "type": "uint256"
        }
      ],
      "name": "increaseAllowance",
      "outputs": [
        {
          "internalType": "bool",
          "name": "",
          "type": "bool"
        }
      ],
      "stateMutability": "nonpayable",
      "type": "function"
    },
    {
      "inputs": [],
      "name": "name",
      "outputs": [
        {
          "internalType": "string",
          "name": "",
          "type": "string"
        }
      ],
      "stateMutability": "view",
      "type": "function"
    },
    {
      "inputs": [],
      "name": "symbol",
      "outputs": [
        {
          "internalType": "string",
          "name": "",
          "type": "string"
        }
      ],
      "stateMutability": "view",
      "type": "function"
    },
    {
      "inputs": [],
      "name": "totalSupply",
      "outputs": [
        {
          "internalType": "uint256",
          "name": "",
          "type": "uint256"
        }
      ],
      "stateMutability": "view",
      "type": "function"
    },
    {
      "inputs": [
        {
          "internalType": "address",
          "name": "to",
          "type": "address"
        },
        {
          "internalType": "uint256",
          "name": "amount",
          "type": "uint256"
        }
      ],
      "name": "transfer",
      "outputs": [
        {
          "internalType": "bool",
          "name": "",
          "type": "bool"
        }
      ],
      "stateMutability": "nonpayable",
      "type": "function"
    },
    {
      "inputs": [
        {
          "internalType": "address",
          "name": "from",
          "type": "address"
        },
        {
          "internalType": "address",
          "name": "to",
          "type": "address"
        },
        {
          "internalType": "uint256",
          "name": "amount",
          "type": "uint256"
        }
      ],
      "name": "transferFrom",
      "outputs": [
        {
          "internalType": "bool",
          "name": "",
          "type": "bool"
        }
      ],
      "stateMutability": "nonpayable",
      "type": "function"
    },
    {
      "inputs": [],
      "name": "balance",
      "outputs": [
        {
          "internalType": "uint256",
          "name": "",
          "type": "uint256"
        }
      ],
      "stateMutability": "view",
      "type": "function"
    },
    {
      "inputs": [
        {
          "internalType": "string",
          "name": "message",
          "type": "string"
        }
      ],
      "name": "buyCoffee",
      "outputs": [],
      "stateMutability": "payable",
      "type": "function"
    },
    {
      "inputs": [
        {
          "internalType": "uint256",
          "name": "_amount",
          "type": "uint256"
        }
      ],
      "name": "withdraw",
      "outputs": [],
      "stateMutability": "payable",
      "type": "function"
    }
  ],
  "bytecode": "0x60806040523480156200001157600080fd5b506040518060400160405280600c81526020017f436f6666656520546f6b656e00000000000000000000000000000000000000008152506040518060400160405280600281526020017f435400000000000000000000000000000000000000000000000000000000000081525081600390805190602001906200009692919062000297565b508060049080519060200190620000af92919062000297565b505050620000cd33683635c9adc5dea000006200011460201b60201c565b33600560006101000a81548173ffffffffffffffffffffffffffffffffffffffff021916908373ffffffffffffffffffffffffffffffffffffffff160217905550620004f3565b600073ffffffffffffffffffffffffffffffffffffffff168273ffffffffffffffffffffffffffffffffffffffff16141562000187576040517f08c379a00000000000000000000000000000000000000000000000000000000081526004016200017e90620003a8565b60405180910390fd5b6200019b600083836200028d60201b60201c565b8060026000828254620001af919062000403565b92505081905550806000808473ffffffffffffffffffffffffffffffffffffffff1673ffffffffffffffffffffffffffffffffffffffff168152602001908152602001600020600082825462000206919062000403565b925050819055508173ffffffffffffffffffffffffffffffffffffffff16600073ffffffffffffffffffffffffffffffffffffffff167fddf252ad1be2c89b69c2b068fc378daa952ba7f163c4a11628f55a4df523b3ef836040516200026d919062000471565b60405180910390a362000289600083836200029260201b60201c565b5050565b505050565b505050565b828054620002a590620004bd565b90600052602060002090601f016020900481019282620002c9576000855562000315565b82601f10620002e457805160ff191683800117855562000315565b8280016001018555821562000315579182015b8281111562000314578251825591602001919060010190620002f7565b5b50905062000324919062000328565b5090565b5b808211156200034357600081600090555060010162000329565b5090565b600082825260208201905092915050565b7f45524332303a206d696e7420746f20746865207a65726f206164647265737300600082015250565b600062000390601f8362000347565b91506200039d8262000358565b602082019050919050565b60006020820190508181036000830152620003c38162000381565b9050919050565b6000819050919050565b7f4e487b7100000000000000000000000000000000000000000000000000000000600052601160045260246000fd5b60006200041082620003ca565b91506200041d83620003ca565b9250827fffffffffffffffffffffffffffffffffffffffffffffffffffffffffffffffff03821115620004555762000454620003d4565b5b828201905092915050565b6200046b81620003ca565b82525050565b600060208201905062000488600083018462000460565b92915050565b7f4e487b7100000000000000000000000000000000000000000000000000000000600052602260045260246000fd5b60006002820490506001821680620004d657607f821691505b60208210811415620004ed57620004ec6200048e565b5b50919050565b611d8380620005036000396000f3fe6080604052600436106100e85760003560e01c8063395093511161008a578063a9059cbb11610059578063a9059cbb14610302578063b69ef8a81461033f578063dd62ed3e1461036a578063f851a440146103a7576100e8565b8063395093511461022057806370a082311461025d57806395d89b411461029a578063a457c2d7146102c5576100e8565b806323b872dd116100c657806323b872dd146101805780632b371b54146101bd5780632e1a7d4d146101d9578063313ce567146101f5576100e8565b806306fdde03146100ed578063095ea7b31461011857806318160ddd14610155575b600080fd5b3480156100f957600080fd5b506101026103d2565b60405161010f91906111eb565b60405180910390f35b34801561012457600080fd5b5061013f600480360381019061013a91906112b5565b610464565b60405161014c9190611310565b60405180910390f35b34801561016157600080fd5b5061016a610487565b604051610177919061133a565b60405180910390f35b34801561018c57600080fd5b506101a760048036038101906101a29190611355565b610491565b6040516101b49190611310565b60405180910390f35b6101d760048036038101906101d291906114dd565b6104c0565b005b6101f360048036038101906101ee9190611526565b610562565b005b34801561020157600080fd5b5061020a6105cb565b604051610217919061156f565b60405180910390f35b34801561022c57600080fd5b50610247600480360381019061024291906112b5565b6105d4565b6040516102549190611310565b60405180910390f35b34801561026957600080fd5b50610284600480360381019061027f919061158a565b61067e565b604051610291919061133a565b60405180910390f35b3480156102a657600080fd5b506102af6106c6565b6040516102bc91906111eb565b60405180910390f35b3480156102d157600080fd5b506102ec60048036038101906102e791906112b5565b610758565b6040516102f99190611310565b60405180910390f35b34801561030e57600080fd5b50610329600480360381019061032491906112b5565b610842565b6040516103369190611310565b60405180910390f35b34801561034b57600080fd5b50610354610865565b604051610361919061133a565b60405180910390f35b34801561037657600080fd5b50610391600480360381019061038c91906115b7565b610884565b60405161039e919061133a565b60405180910390f35b3480156103b357600080fd5b506103bc61090b565b6040516103c99190611606565b60405180910390f35b6060600380546103e190611650565b80601f016020809104026020016040519081016040528092919081815260200182805461040d90611650565b801561045a5780601f1061042f5761010080835404028352916020019161045a565b820191906000526020600020905b81548152906001019060200180831161043d57829003601f168201915b5050505050905090565b60008061046f610931565b905061047c818585610939565b600191505092915050565b6000600254905090565b60008061049c610931565b90506104a9858285610b04565b6104b4858585610b90565b60019150509392505050565b60003411610503576040517f08c379a00000000000000000000000000000000000000000000000000000000081526004016104fa906116ce565b60405180910390fd5b61050d3334610e11565b3373ffffffffffffffffffffffffffffffffffffffff167f28d5989e7157b3ccc8e201f2b16fd929e6809882c0eda0089cf813d8c5a71a1e824234604051610557939291906116ee565b60405180910390a250565b8061056c3361067e565b101561057757600080fd5b6105813382610f71565b3373ffffffffffffffffffffffffffffffffffffffff166108fc829081150290604051600060405180830381858888f193505050501580156105c7573d6000803e3d6000fd5b5050565b60006012905090565b6000806105df610931565b9050610673818585600160008673ffffffffffffffffffffffffffffffffffffffff1673ffffffffffffffffffffffffffffffffffffffff16815260200190815260200160002060008973ffffffffffffffffffffffffffffffffffffffff1673ffffffffffffffffffffffffffffffffffffffff1681526020019081526020016000205461066e919061175b565b610939565b600191505092915050565b60008060008373ffffffffffffffffffffffffffffffffffffffff1673ffffffffffffffffffffffffffffffffffffffff168152602001908152602001600020549050919050565b6060600480546106d590611650565b80601f016020809104026020016040519081016040528092919081815260200182805461070190611650565b801561074e5780601f106107235761010080835404028352916020019161074e565b820191906000526020600020905b81548152906001019060200180831161073157829003601f168201915b5050505050905090565b600080610763610931565b90506000600160008373ffffffffffffffffffffffffffffffffffffffff1673ffffffffffffffffffffffffffffffffffffffff16815260200190815260200160002060008673ffffffffffffffffffffffffffffffffffffffff1673ffffffffffffffffffffffffffffffffffffffff16815260200190815260200160002054905083811015610829576040517f08c379a000000000000000000000000000000000000000000000000000000000815260040161082090611823565b60405180910390fd5b6108368286868403610939565b60019250505092915050565b60008061084d610931565b905061085a818585610b90565b600191505092915050565b60003073ffffffffffffffffffffffffffffffffffffffff1631905090565b6000600160008473ffffffffffffffffffffffffffffffffffffffff1673ffffffffffffffffffffffffffffffffffffffff16815260200190815260200160002060008373ffffffffffffffffffffffffffffffffffffffff1673ffffffffffffffffffffffffffffffffffffffff16815260200190815260200160002054905092915050565b600560009054906101000a900473ffffffffffffffffffffffffffffffffffffffff1681565b600033905090565b600073ffffffffffffffffffffffffffffffffffffffff168373ffffffffffffffffffffffffffffffffffffffff1614156109a9576040517f08c379a00000000000000000000000000000000000000000000000000000000081526004016109a0906118b5565b60405180910390fd5b600073ffffffffffffffffffffffffffffffffffffffff168273ffffffffffffffffffffffffffffffffffffffff161415610a19576040517f08c379a0000000000000000000000000000000000000000000000000000000008152600401610a1090611947565b60405180910390fd5b80600160008573ffffffffffffffffffffffffffffffffffffffff1673ffffffffffffffffffffffffffffffffffffffff16815260200190815260200160002060008473ffffffffffffffffffffffffffffffffffffffff1673ffffffffffffffffffffffffffffffffffffffff168152602001908152602001600020819055508173ffffffffffffffffffffffffffffffffffffffff168373ffffffffffffffffffffffffffffffffffffffff167f8c5be1e5ebec7d5bd14f71427d1e84f3dd0314c0f7b2291e5b200ac8c7c3b92583604051610af7919061133a565b60405180910390a3505050565b6000610b108484610884565b90507fffffffffffffffffffffffffffffffffffffffffffffffffffffffffffffffff8114610b8a5781811015610b7c576040517f08c379a0000000000000000000000000000000000000000000000000000000008152600401610b73906119b3565b60405180910390fd5b610b898484848403610939565b5b50505050565b600073ffffffffffffffffffffffffffffffffffffffff168373ffffffffffffffffffffffffffffffffffffffff161415610c00576040517f08c379a0000000000000000000000000000000000000000000000000000000008152600401610bf790611a45565b60405180910390fd5b600073ffffffffffffffffffffffffffffffffffffffff168273ffffffffffffffffffffffffffffffffffffffff161415610c70576040517f08c379a0000000000000000000000000000000000000000000000000000000008152600401610c6790611ad7565b60405180910390fd5b610c7b838383611148565b60008060008573ffffffffffffffffffffffffffffffffffffffff1673ffffffffffffffffffffffffffffffffffffffff16815260200190815260200160002054905081811015610d01576040517f08c379a0000000000000000000000000000000000000000000000000000000008152600401610cf890611b69565b60405180910390fd5b8181036000808673ffffffffffffffffffffffffffffffffffffffff1673ffffffffffffffffffffffffffffffffffffffff16815260200190815260200160002081905550816000808573ffffffffffffffffffffffffffffffffffffffff1673ffffffffffffffffffffffffffffffffffffffff1681526020019081526020016000206000828254610d94919061175b565b925050819055508273ffffffffffffffffffffffffffffffffffffffff168473ffffffffffffffffffffffffffffffffffffffff167fddf252ad1be2c89b69c2b068fc378daa952ba7f163c4a11628f55a4df523b3ef84604051610df8919061133a565b60405180910390a3610e0b84848461114d565b50505050565b600073ffffffffffffffffffffffffffffffffffffffff168273ffffffffffffffffffffffffffffffffffffffff161415610e81576040517f08c379a0000000000000000000000000000000000000000000000000000000008152600401610e7890611bd5565b60405180910390fd5b610e8d60008383611148565b8060026000828254610e9f919061175b565b92505081905550806000808473ffffffffffffffffffffffffffffffffffffffff1673ffffffffffffffffffffffffffffffffffffffff1681526020019081526020016000206000828254610ef4919061175b565b925050819055508173ffffffffffffffffffffffffffffffffffffffff16600073ffffffffffffffffffffffffffffffffffffffff167fddf252ad1be2c89b69c2b068fc378daa952ba7f163c4a11628f55a4df523b3ef83604051610f59919061133a565b60405180910390a3610f6d6000838361114d565b5050565b600073ffffffffffffffffffffffffffffffffffffffff168273ffffffffffffffffffffffffffffffffffffffff161415610fe1576040517f08c379a0000000000000000000000000000000000000000000000000000000008152600401610fd890611c67565b60405180910390fd5b610fed82600083611148565b60008060008473ffffffffffffffffffffffffffffffffffffffff1673ffffffffffffffffffffffffffffffffffffffff16815260200190815260200160002054905081811015611073576040517f08c379a000000000000000000000000000000000000000000000000000000000815260040161106a90611cf9565b60405180910390fd5b8181036000808573ffffffffffffffffffffffffffffffffffffffff1673ffffffffffffffffffffffffffffffffffffffff1681526020019081526020016000208190555081600260008282546110ca9190611d19565b92505081905550600073ffffffffffffffffffffffffffffffffffffffff168373ffffffffffffffffffffffffffffffffffffffff167fddf252ad1be2c89b69c2b068fc378daa952ba7f163c4a11628f55a4df523b3ef8460405161112f919061133a565b60405180910390a36111438360008461114d565b505050565b505050565b505050565b600081519050919050565b600082825260208201905092915050565b60005b8381101561118c578082015181840152602081019050611171565b8381111561119b576000848401525b50505050565b6000601f19601f8301169050919050565b60006111bd82611152565b6111c7818561115d565b93506111d781856020860161116e565b6111e0816111a1565b840191505092915050565b6000602082019050818103600083015261120581846111b2565b905092915050565b6000604051905090565b600080fd5b600080fd5b600073ffffffffffffffffffffffffffffffffffffffff82169050919050565b600061124c82611221565b9050919050565b61125c81611241565b811461126757600080fd5b50565b60008135905061127981611253565b92915050565b6000819050919050565b6112928161127f565b811461129d57600080fd5b50565b6000813590506112af81611289565b92915050565b600080604083850312156112cc576112cb611217565b5b60006112da8582860161126a565b92505060206112eb858286016112a0565b9150509250929050565b60008115159050919050565b61130a816112f5565b82525050565b60006020820190506113256000830184611301565b92915050565b6113348161127f565b82525050565b600060208201905061134f600083018461132b565b92915050565b60008060006060848603121561136e5761136d611217565b5b600061137c8682870161126a565b935050602061138d8682870161126a565b925050604061139e868287016112a0565b9150509250925092565b600080fd5b600080fd5b7f4e487b7100000000000000000000000000000000000000000000000000000000600052604160045260246000fd5b6113ea826111a1565b810181811067ffffffffffffffff82111715611409576114086113b2565b5b80604052505050565b600061141c61120d565b905061142882826113e1565b919050565b600067ffffffffffffffff821115611448576114476113b2565b5b611451826111a1565b9050602081019050919050565b82818337600083830152505050565b600061148061147b8461142d565b611412565b90508281526020810184848401111561149c5761149b6113ad565b5b6114a784828561145e565b509392505050565b600082601f8301126114c4576114c36113a8565b5b81356114d484826020860161146d565b91505092915050565b6000602082840312156114f3576114f2611217565b5b600082013567ffffffffffffffff8111156115115761151061121c565b5b61151d848285016114af565b91505092915050565b60006020828403121561153c5761153b611217565b5b600061154a848285016112a0565b91505092915050565b600060ff82169050919050565b61156981611553565b82525050565b60006020820190506115846000830184611560565b92915050565b6000602082840312156115a05761159f611217565b5b60006115ae8482850161126a565b91505092915050565b600080604083850312156115ce576115cd611217565b5b60006115dc8582860161126a565b92505060206115ed8582860161126a565b9150509250929050565b61160081611241565b82525050565b600060208201905061161b60008301846115f7565b92915050565b7f4e487b7100000000000000000000000000000000000000000000000000000000600052602260045260246000fd5b6000600282049050600182168061166857607f821691505b6020821081141561167c5761167b611621565b5b50919050565b7f616d6f756e742063616e6e6f7420626520300000000000000000000000000000600082015250565b60006116b860128361115d565b91506116c382611682565b602082019050919050565b600060208201905081810360008301526116e7816116ab565b9050919050565b6000606082019050818103600083015261170881866111b2565b9050611717602083018561132b565b611724604083018461132b565b949350505050565b7f4e487b7100000000000000000000000000000000000000000000000000000000600052601160045260246000fd5b60006117668261127f565b91506117718361127f565b9250827fffffffffffffffffffffffffffffffffffffffffffffffffffffffffffffffff038211156117a6576117a561172c565b5b828201905092915050565b7f45524332303a2064656372656173656420616c6c6f77616e63652062656c6f7760008201527f207a65726f000000000000000000000000000000000000000000000000000000602082015250565b600061180d60258361115d565b9150611818826117b1565b604082019050919050565b6000602082019050818103600083015261183c81611800565b9050919050565b7f45524332303a20617070726f76652066726f6d20746865207a65726f2061646460008201527f7265737300000000000000000000000000000000000000000000000000000000602082015250565b600061189f60248361115d565b91506118aa82611843565b604082019050919050565b600060208201905081810360008301526118ce81611892565b9050919050565b7f45524332303a20617070726f766520746f20746865207a65726f20616464726560008201527f7373000000000000000000000000000000000000000000000000000000000000602082015250565b600061193160228361115d565b915061193c826118d5565b604082019050919050565b6000602082019050818103600083015261196081611924565b9050919050565b7f45524332303a20696e73756666696369656e7420616c6c6f77616e6365000000600082015250565b600061199d601d8361115d565b91506119a882611967565b602082019050919050565b600060208201905081810360008301526119cc81611990565b9050919050565b7f45524332303a207472616e736665722066726f6d20746865207a65726f20616460008201527f6472657373000000000000000000000000000000000000000000000000000000602082015250565b6000611a2f60258361115d565b9150611a3a826119d3565b604082019050919050565b60006020820190508181036000830152611a5e81611a22565b9050919050565b7f45524332303a207472616e7366657220746f20746865207a65726f206164647260008201527f6573730000000000000000000000000000000000000000000000000000000000602082015250565b6000611ac160238361115d565b9150611acc82611a65565b604082019050919050565b60006020820190508181036000830152611af081611ab4565b9050919050565b7f45524332303a207472616e7366657220616d6f756e742065786365656473206260008201527f616c616e63650000000000000000000000000000000000000000000000000000602082015250565b6000611b5360268361115d565b9150611b5e82611af7565b604082019050919050565b60006020820190508181036000830152611b8281611b46565b9050919050565b7f45524332303a206d696e7420746f20746865207a65726f206164647265737300600082015250565b6000611bbf601f8361115d565b9150611bca82611b89565b602082019050919050565b60006020820190508181036000830152611bee81611bb2565b9050919050565b7f45524332303a206275726e2066726f6d20746865207a65726f2061646472657360008201527f7300000000000000000000000000000000000000000000000000000000000000602082015250565b6000611c5160218361115d565b9150611c5c82611bf5565b604082019050919050565b60006020820190508181036000830152611c8081611c44565b9050919050565b7f45524332303a206275726e20616d6f756e7420657863656564732062616c616e60008201527f6365000000000000000000000000000000000000000000000000000000000000602082015250565b6000611ce360228361115d565b9150611cee82611c87565b604082019050919050565b60006020820190508181036000830152611d1281611cd6565b9050919050565b6000611d248261127f565b9150611d2f8361127f565b925082821015611d4257611d4161172c565b5b82820390509291505056fea26469706673582212208efe5a544d7f15525a7b6395a2edbc5b1831fbd404003c823f170caa2f9bb66d64736f6c634300080c0033",
  "immutableReferences": {},
  "source": "pragma solidity ^0.8.0;\n\nimport \"@openzeppelin/contracts/token/ERC20/ERC20.sol\";\n\ncontract CoffeeToken is ERC20 {\n    address public admin;\n\n    event Coffee(\n        address indexed from,\n        string message,\n        uint256 date,\n        uint256 value\n    );\n\n    constructor() ERC20(\"Coffee Token\", \"CT\") {\n        _mint(msg.sender, 1000000000000000000000);\n        admin = msg.sender;\n    }\n\n    function balance() public view returns (uint256) {\n        return address(this).balance;\n    }\n    \n    function buyCoffee(string memory message) public payable {\n        // Amount must be greater than zero\n        require(msg.value > 0, \"amount cannot be 0\");\n\n        //mint coffee token for msg.sender\n        _mint(msg.sender, msg.value);\n\n        // entry in event\n        emit Coffee(msg.sender, message, block.timestamp, msg.value);\n    }\n\n    function withdraw(uint256 _amount) public payable {\n        // Burn FarmTokens from msg sender\n        require(balanceOf(msg.sender) >= _amount);\n        _burn(msg.sender, _amount);\n        payable(msg.sender).transfer(_amount);\n    }\n}\n",
  "sourcePath": "/home/aman/Documents/learning/blockchain/BuyCoffee/contracts/CoffeeToken.sol",
  "compiler": {
    "name": "solc",
    "version": "0.8.12+commit.f00d7308.Emscripten.clang"
  },
  "schemaVersion": "3.4.5",
  "updatedAt": "2022-02-22T11:38:17.754Z",
  "devdoc": {
    "kind": "dev",
    "methods": {
      "allowance(address,address)": {
        "details": "See {IERC20-allowance}."
      },
      "approve(address,uint256)": {
        "details": "See {IERC20-approve}. NOTE: If `amount` is the maximum `uint256`, the allowance is not updated on `transferFrom`. This is semantically equivalent to an infinite approval. Requirements: - `spender` cannot be the zero address."
      },
      "balanceOf(address)": {
        "details": "See {IERC20-balanceOf}."
      },
      "decimals()": {
        "details": "Returns the number of decimals used to get its user representation. For example, if `decimals` equals `2`, a balance of `505` tokens should be displayed to a user as `5.05` (`505 / 10 ** 2`). Tokens usually opt for a value of 18, imitating the relationship between Ether and Wei. This is the value {ERC20} uses, unless this function is overridden; NOTE: This information is only used for _display_ purposes: it in no way affects any of the arithmetic of the contract, including {IERC20-balanceOf} and {IERC20-transfer}."
      },
      "decreaseAllowance(address,uint256)": {
        "details": "Atomically decreases the allowance granted to `spender` by the caller. This is an alternative to {approve} that can be used as a mitigation for problems described in {IERC20-approve}. Emits an {Approval} event indicating the updated allowance. Requirements: - `spender` cannot be the zero address. - `spender` must have allowance for the caller of at least `subtractedValue`."
      },
      "increaseAllowance(address,uint256)": {
        "details": "Atomically increases the allowance granted to `spender` by the caller. This is an alternative to {approve} that can be used as a mitigation for problems described in {IERC20-approve}. Emits an {Approval} event indicating the updated allowance. Requirements: - `spender` cannot be the zero address."
      },
      "name()": {
        "details": "Returns the name of the token."
      },
      "symbol()": {
        "details": "Returns the symbol of the token, usually a shorter version of the name."
      },
      "totalSupply()": {
        "details": "See {IERC20-totalSupply}."
      },
      "transfer(address,uint256)": {
        "details": "See {IERC20-transfer}. Requirements: - `to` cannot be the zero address. - the caller must have a balance of at least `amount`."
      },
      "transferFrom(address,address,uint256)": {
        "details": "See {IERC20-transferFrom}. Emits an {Approval} event indicating the updated allowance. This is not required by the EIP. See the note at the beginning of {ERC20}. NOTE: Does not update the allowance if the current allowance is the maximum `uint256`. Requirements: - `from` and `to` cannot be the zero address. - `from` must have a balance of at least `amount`. - the caller must have allowance for ``from``'s tokens of at least `amount`."
      }
    },
    "version": 1
  },
  "userdoc": {
    "kind": "user",
    "methods": {},
    "version": 1
  }
}